{"abi":[{"type":"constructor","inputs":[],"stateMutability":"payable"},{"type":"function","name":"BTC","inputs":[],"outputs":[{"name":"","type":"address","internalType":"contract MockERC20"}],"stateMutability":"view"},{"type":"function","name":"USDC","inputs":[],"outputs":[{"name":"","type":"address","internalType":"contract MockERC20"}],"stateMutability":"view"},{"type":"function","name":"WETH","inputs":[],"outputs":[{"name":"","type":"address","internalType":"address"}],"stateMutability":"view"},{"type":"function","name":"actors","inputs":[{"name":"","type":"uint256","internalType":"uint256"}],"outputs":[{"name":"","type":"address","internalType":"address"}],"stateMutability":"view"},{"type":"function","name":"alice","inputs":[],"outputs":[{"name":"","type":"address","internalType":"address"}],"stateMutability":"view"},{"type":"function","name":"bob","inputs":[],"outputs":[{"name":"","type":"address","internalType":"address"}],"stateMutability":"view"},{"type":"function","name":"btcFeed","inputs":[],"outputs":[{"name":"","type":"address","internalType":"contract MockAggregatorV3"}],"stateMutability":"view"},{"type":"function","name":"btcPriceFeedFactor","inputs":[],"outputs":[{"name":"","type":"uint256","internalType":"uint256"}],"stateMutability":"view"},{"type":"function","name":"carol","inputs":[],"outputs":[{"name":"","type":"address","internalType":"address"}],"stateMutability":"view"},{"type":"function","name":"collateralDeposited","inputs":[{"name":"","type":"address","internalType":"address"}],"outputs":[{"name":"","type":"uint256","internalType":"uint256"}],"stateMutability":"view"},{"type":"function","name":"collateralWithdrawn","inputs":[{"name":"","type":"address","internalType":"address"}],"outputs":[{"name":"","type":"uint256","internalType":"uint256"}],"stateMutability":"view"},{"type":"function","name":"credit_actors","inputs":[],"outputs":[],"stateMutability":"nonpayable"},{"type":"function","name":"crytic_OIShouldNotBeMoreThan50PercLiquidity","inputs":[],"outputs":[],"stateMutability":"nonpayable"},{"type":"function","name":"crytic_tradersShouldNotWithdrawMoreThanDeposited","inputs":[],"outputs":[],"stateMutability":"nonpayable"},{"type":"function","name":"feedDecimals","inputs":[],"outputs":[{"name":"","type":"uint8","internalType":"uint8"}],"stateMutability":"view"},{"type":"function","name":"heartbeat","inputs":[],"outputs":[{"name":"","type":"uint256","internalType":"uint256"}],"stateMutability":"view"},{"type":"function","name":"lpDeposited","inputs":[{"name":"","type":"address","internalType":"address"}],"outputs":[{"name":"","type":"uint256","internalType":"uint256"}],"stateMutability":"view"},{"type":"function","name":"lpWithdrawn","inputs":[{"name":"","type":"address","internalType":"address"}],"outputs":[{"name":"","type":"uint256","internalType":"uint256"}],"stateMutability":"view"},{"type":"function","name":"minimumPerps","inputs":[],"outputs":[{"name":"","type":"address","internalType":"contract MinimumPerps"}],"stateMutability":"view"},{"type":"function","name":"minimumPerps_decreasePosition","inputs":[{"name":"isLong","type":"bool","internalType":"bool"},{"name":"sizeDeltaUsd","type":"uint256","internalType":"uint256"},{"name":"collateralDelta","type":"uint256","internalType":"uint256"},{"name":"_price","type":"uint256","internalType":"uint256"}],"outputs":[],"stateMutability":"nonpayable"},{"type":"function","name":"minimumPerps_deposit","inputs":[{"name":"amount","type":"uint256","internalType":"uint256"},{"name":"divisor","type":"uint256","internalType":"uint256"},{"name":"_price","type":"uint256","internalType":"uint256"}],"outputs":[],"stateMutability":"nonpayable"},{"type":"function","name":"minimumPerps_increasePosition","inputs":[{"name":"isLong","type":"bool","internalType":"bool"},{"name":"sizeDeltaUsd","type":"uint256","internalType":"uint256"},{"name":"collateralDelta","type":"uint256","internalType":"uint256"},{"name":"_price","type":"uint256","internalType":"uint256"}],"outputs":[],"stateMutability":"nonpayable"},{"type":"function","name":"minimumPerps_liquidate","inputs":[{"name":"traderId","type":"uint256","internalType":"uint256"},{"name":"isLong","type":"bool","internalType":"bool"},{"name":"_price","type":"uint256","internalType":"uint256"}],"outputs":[],"stateMutability":"nonpayable"},{"type":"function","name":"minimumPerps_mint","inputs":[{"name":"amount","type":"uint256","internalType":"uint256"},{"name":"divisor","type":"uint256","internalType":"uint256"},{"name":"_price","type":"uint256","internalType":"uint256"}],"outputs":[],"stateMutability":"nonpayable"},{"type":"function","name":"minimumPerps_redeem","inputs":[{"name":"shares","type":"uint256","internalType":"uint256"},{"name":"receiver","type":"address","internalType":"address"},{"name":"owner","type":"address","internalType":"address"},{"name":"_price","type":"uint256","internalType":"uint256"}],"outputs":[],"stateMutability":"nonpayable"},{"type":"function","name":"minimumPerps_withdraw","inputs":[{"name":"amount","type":"uint256","internalType":"uint256"},{"name":"receiver","type":"address","internalType":"address"},{"name":"owner","type":"address","internalType":"address"},{"name":"_price","type":"uint256","internalType":"uint256"}],"outputs":[],"stateMutability":"nonpayable"},{"type":"function","name":"mockAggregatorV3_setPrice","inputs":[{"name":"_answer","type":"uint256","internalType":"uint256"}],"outputs":[],"stateMutability":"nonpayable"},{"type":"function","name":"name","inputs":[],"outputs":[{"name":"","type":"string","internalType":"string"}],"stateMutability":"view"},{"type":"function","name":"setup_actors","inputs":[],"outputs":[],"stateMutability":"nonpayable"},{"type":"function","name":"symbol","inputs":[],"outputs":[{"name":"","type":"string","internalType":"string"}],"stateMutability":"view"},{"type":"function","name":"tradersCollateralDeposit","inputs":[{"name":"_trader","type":"address","internalType":"address"}],"outputs":[{"name":"","type":"uint256","internalType":"uint256"}],"stateMutability":"view"},{"type":"function","name":"tradersCollateralWithdrawn","inputs":[{"name":"_trader","type":"address","internalType":"address"}],"outputs":[{"name":"","type":"uint256","internalType":"uint256"}],"stateMutability":"view"},{"type":"function","name":"usdcFeed","inputs":[],"outputs":[{"name":"","type":"address","internalType":"contract MockAggregatorV3"}],"stateMutability":"view"},{"type":"function","name":"usdcPriceFeedFactor","inputs":[],"outputs":[{"name":"","type":"uint256","internalType":"uint256"}],"stateMutability":"view"},{"type":"event","name":"Log","inputs":[{"name":"","type":"string","indexed":false,"internalType":"string"}],"anonymous":false}],"bytecode":{"object":"0x608060405261000c610011565b6109c5565b600660405161001f90610607565b61002991906106b5565b604051809103906000f080158015610045573d6000803e3d6000fd5b50600180546001600160a01b0319166001600160a01b039290921691909117905560405160089061007590610607565b61007f919061070e565b604051809103906000f08015801561009b573d6000803e3d6000fd5b50600280546001600160a01b0319166001600160a01b03929092169190911790556008600160006100cd83600a61084f565b6100d99061c350610865565b60008060006040516100ea90610614565b6100fa979695949392919061087c565b604051809103906000f080158015610116573d6000803e3d6000fd5b50600480546001600160a01b0319166001600160a01b039290921691909117905560086001600061014883600a61084f565b610153906001610865565b600080600060405161016490610614565b61017497969594939291906108e6565b604051809103906000f080158015610190573d6000803e3d6000fd5b50600580546001600160a01b0319166001600160a01b03929092169190911790556040516000906101c090610621565b604051809103906000f0801580156101dc573d6000803e3d6000fd5b50600154600554604051626b229b60e51b81526001600160a01b0392831660048201529082166024820152610e106044820152662386f26fc100006064820152919250821690630d64536090608401600060405180830381600087803b15801561024557600080fd5b505af1158015610259573d6000803e3d6000fd5b505060025460048054604051626b229b60e51b81526001600160a01b039384169281019290925282166024820152610e106044820152655af3107a400060648201529084169250630d6453609150608401600060405180830381600087803b1580156102c457600080fd5b505af11580156102d8573d6000803e3d6000fd5b50505050604051806040016040528060088152602001674d696e506572707360c01b8152506040518060400160405280600281526020016104d560f41b815250600260009054906101000a90046001600160a01b0316600160009054906101000a90046001600160a01b03168460006040516103539061062e565b6103629695949392919061095a565b604051809103906000f08015801561037e573d6000803e3d6000fd5b50600080546001600160a01b0319166001600160a01b03929092169190911790556103a76103aa565b50565b6001546040516340c10f1960e01b81526201000060048201526402540be40060248201526001600160a01b03909116906340c10f1990604401600060405180830381600087803b1580156103fd57600080fd5b505af1158015610411573d6000803e3d6000fd5b50506001546040516340c10f1960e01b81526202000060048201526402540be40060248201526001600160a01b0390911692506340c10f199150604401600060405180830381600087803b15801561046857600080fd5b505af115801561047c573d6000803e3d6000fd5b50506001546040516340c10f1960e01b81526203000060048201526402540be40060248201526001600160a01b0390911692506340c10f199150604401600060405180830381600087803b1580156104d357600080fd5b505af11580156104e7573d6000803e3d6000fd5b50600392506104f4915050565b60405190808252806020026020018201604052801561051d578160200160208202803683370190505b5080516105329160039160209091019061063b565b5062010000600360008154811061054b5761054b6109af565b9060005260206000200160006101000a8154816001600160a01b0302191690836001600160a01b03160217905550620200006003600181548110610591576105916109af565b9060005260206000200160006101000a8154816001600160a01b0302191690836001600160a01b031602179055506203000060036002815481106105d7576105d76109af565b9060005260206000200160006101000a8154816001600160a01b0302191690836001600160a01b03160217905550565b610ae7806137a083390190565b6107318061428783390190565b6106c1806149b883390190565b612e8a8061507983390190565b828054828255906000526020600020908101928215610690579160200282015b8281111561069057825182546001600160a01b0319166001600160a01b0390911617825560209092019160019091019061065b565b5061069c9291506106a0565b5090565b5b8082111561069c57600081556001016106a1565b6060815260006106d96060830160048152635553444360e01b602082015260400190565b82810360208401526106fc8160048152635553444360e01b602082015260400190565b91505060ff8316604083015292915050565b60608152600061073160608301600381526242544360e81b602082015260400190565b82810360208401526106fc81600381526242544360e81b602082015260400190565b634e487b7160e01b600052601160045260246000fd5b600181815b808511156107a457816000190482111561078a5761078a610753565b8085161561079757918102915b93841c939080029061076e565b509250929050565b6000826107bb57506001610849565b816107c857506000610849565b81600181146107de57600281146107e857610804565b6001915050610849565b60ff8411156107f9576107f9610753565b50506001821b610849565b5060208310610133831016604e8410600b8410161715610827575081810a610849565b6108318383610769565b806000190482111561084557610845610753565b0290505b92915050565b600061085e60ff8416836107ac565b9392505050565b808202811582820484141761084957610849610753565b600061010060ff8a1683528060208401526108a9818401600381526242544360e81b602082015260400190565b604084019990995250506001600160501b039586166060820152608081019490945260a084019290925260c083015290911660e090910152919050565b600061010060ff8a1683528060208401526108a981840160048152635553444360e01b602082015260400190565b6000815180845260005b8181101561093a5760208185018101518683018201520161091e565b506000602082860101526020601f19601f83011685010191505092915050565b60c08152600061096d60c0830189610914565b828103602084015261097f8189610914565b6001600160a01b0397881660408501529587166060840152505091909316608082015260a0019190915292915050565b634e487b7160e01b600052603260045260246000fd5b612dcc806109d46000396000f3fe608060405234801561001057600080fd5b50600436106102065760003560e01c806389a302711161011a578063a4e7d977116100ad578063c23953d01161007c578063c23953d014610472578063c23d2a4a1461048c578063d046cf521461049f578063df7c1601146104bf578063fb47e3a2146104cd57600080fd5b8063a4e7d97714610427578063ad5c46481461043a578063beab758414610455578063c09cec771461046857600080fd5b806393c0e83a116100e957806393c0e83a146103d857806395d89b41146103eb5780639c2111871461040c578063a4de00e41461041f57600080fd5b806389a30271146103a05780638b930f15146103b35780638ff19b0e146103bd578063900e60e8146103c557600080fd5b80632792949d1161019d57806343b11cdc1161016c57806343b11cdc146103275780635836a865146103475780635dc922221461035a57806368526ec31461036d5780637f7095401461038d57600080fd5b80632792949d146102eb5780633153dc4c146102af578063396e74e6146103165780633defb9621461031e57600080fd5b806312785b3e116101d957806312785b3e146102945780631ab83602146102a75780631e56851a146102af57806323b6243c146102d857600080fd5b80630509e47e1461020b57806306fdde031461022b5780630a4b9ec21461025f5780630dbb8e871461027f575b600080fd5b610218655af3107a400081565b6040519081526020015b60405180910390f35b610252604051806040016040528060088152602001674d696e506572707360c01b81525081565b6040516102229190612823565b61021861026d36600461288e565b60066020526000908152604090205481565b61029261028d3660046128b0565b6104d7565b005b6102926102a23660046128ea565b61084f565b610292610b85565b6102186102bd36600461288e565b6001600160a01b031660009081526006602052604090205490565b6102926102e6366004612925565b610de2565b6002546102fe906001600160a01b031681565b6040516001600160a01b039091168152602001610222565b610292611132565b610218610e1081565b61021861033536600461288e565b60076020526000908152604090205481565b6102926103553660046128b0565b611398565b6000546102fe906001600160a01b031681565b61021861037b36600461288e565b60086020526000908152604090205481565b61029261039b366004612969565b611781565b6001546102fe906001600160a01b031681565b6102fe6203000081565b610292611904565b6102926103d3366004612925565b611b3d565b6102fe6103e6366004612969565b611df5565b6102526040518060400160405280600281526020016104d560f41b81525081565b61029261041a3660046128ea565b611e1f565b610292612275565b6005546102fe906001600160a01b031681565b6102fe73c02aaa39b223fe8d0a0e5c4f27ead9083c756cc281565b610292610463366004612982565b612331565b6102fe6202000081565b61047a600881565b60405160ff9091168152602001610222565b6004546102fe906001600160a01b031681565b6102186104ad36600461288e565b60096020526000908152604090205481565b610218662386f26fc1000081565b6102fe6201000081565b6104e081611781565b6104eb600a836129d0565b6104f69060016129fa565b6001546040516370a0823160e01b815233600482015291935083916001600160a01b03909116906370a0823190602401602060405180830381865afa158015610543573d6000803e3d6000fd5b505050506040513d601f19601f820116820180604052508101906105679190612a13565b61057190856129d0565b61057b9190612a2c565b60015460005460405163095ea7b360e01b81526001600160a01b03918216600482015260248101849052929550169063095ea7b3906044016020604051808303816000875af11580156105d2573d6000803e3d6000fd5b505050506040513d601f19601f820116820180604052508101906105f69190612a40565b50600154600080546040516370a0823160e01b81526001600160a01b039182166004820152919216906370a0823190602401602060405180830381865afa158015610645573d6000803e3d6000fd5b505050506040513d601f19601f820116820180604052508101906106699190612a13565b600054604051636e553f6560e01b8152600481018790523360248201529192506001600160a01b031690636e553f65906044016020604051808303816000875af19250505080156106d7575060408051601f3d908101601f191682019092526106d491810190612a13565b60015b6107265783156107215761072160006040518060400160405280601d81526020017f6d696e74206572726f723a2066756e6374696f6e2072657665727465640000008152506126e5565b610849565b600154600080546040516370a0823160e01b81526001600160a01b039182166004820152919216906370a0823190602401602060405180830381865afa158015610774573d6000803e3d6000fd5b505050506040513d601f19601f820116820180604052508101906107989190612a13565b90506107e3816107a888866129fa565b6040518060400160405280601c81526020017f6465706f736974206572726f723a207661756c742062616c616e63650000000081525061272d565b33600090815260086020526040812080548892906108029084906129fa565b9091555050851561084657610846826000604051806040016040528060158152602001746465706f736974206572726f723a2073686172657360581b815250612773565b50505b50505050565b61085881611781565b600080546040516305ebef2760e01b815286151560048201523360248201526001600160a01b03909116906305ebef27906044016080604051808303816000875af11580156108ab573d6000803e3d6000fd5b505050506040513d601f19601f820116820180604052508101906108cf9190612a5d565b90508060400151836108e191906129d0565b81519093506108f090856129d0565b600154600080546040516370a0823160e01b81526001600160a01b03918216600482015293975090929116906370a0823190602401602060405180830381865afa158015610942573d6000803e3d6000fd5b505050506040513d601f19601f820116820180604052508101906109669190612a13565b60005460405163050d21b560e31b8152881515600482015260248101889052604481018790529192506001600160a01b0316906328690da890606401600060405180830381600087803b1580156109bc57600080fd5b505af19250505080156109cd575060015b6109ff5783156109fa576109fa6000604051806060016040528060298152602001612cb2602991396126e5565b610846565b600154600080546040516370a0823160e01b81526001600160a01b039182166004820152919216906370a0823190602401602060405180830381865afa158015610a4d573d6000803e3d6000fd5b505050506040513d601f19601f82011682018060405250810190610a719190612a13565b600080546040516305ebef2760e01b81528a1515600482015233602482015292935090916001600160a01b03909116906305ebef27906044016080604051808303816000875af1158015610ac9573d6000803e3d6000fd5b505050506040513d601f19601f82011682018060405250810190610aed9190612a5d565b80518551919250610b2191610b03908a90612ad1565b604051806060016040528060238152602001612cdb6023913961272d565b610b578160400151878660400151610b399190612ad1565b604051806060016040528060298152602001612c1b6029913961272d565b3360009081526007602052604081208054889290610b769084906129fa565b90915550505050505050505050565b6001546040516340c10f1960e01b81526201000060048201526402540be40060248201526001600160a01b03909116906340c10f1990604401600060405180830381600087803b158015610bd857600080fd5b505af1158015610bec573d6000803e3d6000fd5b50506001546040516340c10f1960e01b81526202000060048201526402540be40060248201526001600160a01b0390911692506340c10f199150604401600060405180830381600087803b158015610c4357600080fd5b505af1158015610c57573d6000803e3d6000fd5b50506001546040516340c10f1960e01b81526203000060048201526402540be40060248201526001600160a01b0390911692506340c10f199150604401600060405180830381600087803b158015610cae57600080fd5b505af1158015610cc2573d6000803e3d6000fd5b5060039250610ccf915050565b604051908082528060200260200182016040528015610cf8578160200160208202803683370190505b508051610d0d916003916020909101906127a9565b50620100006003600081548110610d2657610d26612ae4565b9060005260206000200160006101000a8154816001600160a01b0302191690836001600160a01b03160217905550620200006003600181548110610d6c57610d6c612ae4565b9060005260206000200160006101000a8154816001600160a01b0302191690836001600160a01b03160217905550620300006003600281548110610db257610db2612ae4565b9060005260206000200160006101000a8154816001600160a01b0302191690836001600160a01b03160217905550565b610deb81611781565b6000546040516370a0823160e01b81523360048201526001600160a01b03909116906370a0823190602401602060405180830381865afa158015610e33573d6000803e3d6000fd5b505050506040513d601f19601f82011682018060405250810190610e579190612a13565b610e6190856129d0565b600080546040516303d1689d60e11b81526004810184905292965090916001600160a01b03909116906307a2d13a90602401602060405180830381865afa158015610eb0573d6000803e3d6000fd5b505050506040513d601f19601f82011682018060405250810190610ed49190612a13565b600154600080546040516370a0823160e01b81526001600160a01b03918216600482015293945090929116906370a0823190602401602060405180830381865afa158015610f26573d6000803e3d6000fd5b505050506040513d601f19601f82011682018060405250810190610f4a9190612a13565b600054604051635d043b2960e11b815260048101899052336024820181905260448201529192506001600160a01b03169063ba087652906064016020604051808303816000875af1925050508015610fbf575060408051601f3d908101601f19168201909252610fbc91810190612a13565b60015b6110095781156109fa576109fa60006040518060400160405280601f81526020017f72656465656d206572726f723a2066756e6374696f6e207265766572746564008152506126e5565b600154600080546040516370a0823160e01b81526001600160a01b039182166004820152919216906370a0823190602401602060405180830381865afa158015611057573d6000803e3d6000fd5b505050506040513d601f19601f8201168201806040525081019061107b9190612a13565b90506110c68161108b8686612ad1565b6040518060400160405280601b81526020017f72656465656d206572726f723a207661756c742062616c616e6365000000000081525061272d565b33600090815260096020526040812080548692906110e59084906129fa565b90915550508315611128576111288260006040518060400160405280601481526020017372656465656d206572726f723a2073686172657360601b815250612773565b5050505050505050565b60405163ca669fa760e01b8152306004820152737109709ecfa91a80626ff3989d68f67f5b1dd12d9063ca669fa790602401600060405180830381600087803b15801561117e57600080fd5b505af1158015611192573d6000803e3d6000fd5b50506001546040516340c10f1960e01b8152620100006004820152633b9aca0060248201526001600160a01b0390911692506340c10f199150604401600060405180830381600087803b1580156111e857600080fd5b505af11580156111fc573d6000803e3d6000fd5b505060405163ca669fa760e01b8152306004820152737109709ecfa91a80626ff3989d68f67f5b1dd12d925063ca669fa79150602401600060405180830381600087803b15801561124c57600080fd5b505af1158015611260573d6000803e3d6000fd5b50506001546040516340c10f1960e01b8152620200006004820152633b9aca0060248201526001600160a01b0390911692506340c10f199150604401600060405180830381600087803b1580156112b657600080fd5b505af11580156112ca573d6000803e3d6000fd5b505060405163ca669fa760e01b8152306004820152737109709ecfa91a80626ff3989d68f67f5b1dd12d925063ca669fa79150602401600060405180830381600087803b15801561131a57600080fd5b505af115801561132e573d6000803e3d6000fd5b50506001546040516340c10f1960e01b8152620300006004820152633b9aca0060248201526001600160a01b0390911692506340c10f199150604401600060405180830381600087803b15801561138457600080fd5b505af1158015610849573d6000803e3d6000fd5b6113a181611781565b6113ac600a836129d0565b6113b79060016129fa565b6001546040516370a0823160e01b815233600482015291935083916001600160a01b03909116906370a0823190602401602060405180830381865afa158015611404573d6000803e3d6000fd5b505050506040513d601f19601f820116820180604052508101906114289190612a13565b61143290856129d0565b61143c9190612a2c565b600080546040516363737ac960e11b81526004810184905292955090916001600160a01b039091169063c6e6f59290602401602060405180830381865afa15801561148b573d6000803e3d6000fd5b505050506040513d601f19601f820116820180604052508101906114af9190612a13565b60015460005460405163095ea7b360e01b81526001600160a01b03918216600482015260248101889052929350169063095ea7b3906044016020604051808303816000875af1158015611506573d6000803e3d6000fd5b505050506040513d601f19601f8201168201806040525081019061152a9190612a40565b50600154600080546040516370a0823160e01b81526001600160a01b039182166004820152919216906370a0823190602401602060405180830381865afa158015611579573d6000803e3d6000fd5b505050506040513d601f19601f8201168201806040525081019061159d9190612a13565b6000546040516394bf804d60e01b8152600481018590523360248201529192506001600160a01b0316906394bf804d906044016020604051808303816000875af192505050801561160b575060408051601f3d908101601f1916820190925261160891810190612a13565b60015b61165a5784156116555761165560006040518060400160405280601d81526020017f6d696e74206572726f723a2066756e6374696f6e2072657665727465640000008152506126e5565b61177a565b600154600080546040516370a0823160e01b81526001600160a01b039182166004820152919216906370a0823190602401602060405180830381865afa1580156116a8573d6000803e3d6000fd5b505050506040513d601f19601f820116820180604052508101906116cc9190612a13565b9050611717816116dc89866129fa565b6040518060400160405280601981526020017f6d696e74206572726f723a207661756c742062616c616e63650000000000000081525061272d565b33600090815260086020526040812080548992906117369084906129fa565b9091555050861561177757611777826000604051806040016040528060128152602001716d696e74206572726f723a2073686172657360701b815250612773565b50505b5050505050565b737109709ecfa91a80626ff3989d68f67f5b1dd12d63e5d6bf026117a842620151806129fa565b6040518263ffffffff1660e01b81526004016117c691815260200190565b600060405180830381600087803b1580156117e057600080fd5b505af11580156117f4573d6000803e3d6000fd5b505050506000619c408261180891906129d0565b611814906175306129fa565b6004549091506001600160a01b031663f7a308066118346008600a612bde565b61183e9084612bed565b6040518263ffffffff1660e01b815260040161185c91815260200190565b600060405180830381600087803b15801561187657600080fd5b505af115801561188a573d6000803e3d6000fd5b50506005546001600160a01b0316915063f7a3080690506118ad6008600a612bde565b6118b8906001612bed565b6040518263ffffffff1660e01b81526004016118d691815260200190565b600060405180830381600087803b1580156118f057600080fd5b505af1158015610846573d6000803e3d6000fd5b60008060009054906101000a90046001600160a01b03166001600160a01b031663794a97476040518163ffffffff1660e01b8152600401602060405180830381865afa158015611958573d6000803e3d6000fd5b505050506040513d601f19601f8201168201806040525081019061197c9190612a13565b60008054906101000a90046001600160a01b03166001600160a01b031663310a22406040518163ffffffff1660e01b8152600401602060405180830381865afa1580156119cd573d6000803e3d6000fd5b505050506040513d601f19601f820116820180604052508101906119f19190612a13565b6119fb91906129fa565b905060008060009054906101000a90046001600160a01b03166001600160a01b0316637d8820976040518163ffffffff1660e01b8152600401602060405180830381865afa158015611a51573d6000803e3d6000fd5b505050506040513d601f19601f82011682018060405250810190611a759190612a13565b905060008060009054906101000a90046001600160a01b03166001600160a01b031663f7683bbc6040518163ffffffff1660e01b8152600401602060405180830381865afa158015611acb573d6000803e3d6000fd5b505050506040513d601f19601f82011682018060405250810190611aef9190612a13565b9050611b386002611b008385612bed565b611b0a9190612a2c565b8411156040518060400160405280600d81526020016c1d195cdd080c4819985a5b1959609a1b8152506126e5565b505050565b611b4681611781565b60005460405163ce96cb7760e01b81523360048201526001600160a01b039091169063ce96cb7790602401602060405180830381865afa158015611b8e573d6000803e3d6000fd5b505050506040513d601f19601f82011682018060405250810190611bb29190612a13565b611bbc90856129d0565b600154600080546040516370a0823160e01b81526001600160a01b03918216600482015293975090929116906370a0823190602401602060405180830381865afa158015611c0e573d6000803e3d6000fd5b505050506040513d601f19601f82011682018060405250810190611c329190612a13565b600054604051632d182be560e21b815260048101889052336024820181905260448201529192506001600160a01b03169063b460af94906064016020604051808303816000875af1925050508015611ca7575060408051601f3d908101601f19168201909252611ca491810190612a13565b60015b611cd4578415611655576116556000604051806060016040528060218152602001612d51602191396126e5565b600154600080546040516370a0823160e01b81526001600160a01b039182166004820152919216906370a0823190602401602060405180830381865afa158015611d22573d6000803e3d6000fd5b505050506040513d601f19601f82011682018060405250810190611d469190612a13565b9050611d9181611d568986612ad1565b6040518060400160405280601d81526020017f7769746864726177206572726f723a207661756c742062616c616e636500000081525061272d565b3360009081526009602052604081208054899290611db09084906129fa565b9091555050861561177757611777826000604051806040016040528060168152602001757769746864726177206572726f723a2073686172657360501b815250612773565b60038181548110611e0557600080fd5b6000918252602090912001546001600160a01b0316905081565b611e2881611781565b6001546040516370a0823160e01b81523360048201526001600160a01b03909116906370a0823190602401602060405180830381865afa158015611e70573d6000803e3d6000fd5b505050506040513d601f19601f82011682018060405250810190611e949190612a13565b611e9e90836129d0565b9150611eab6005846129d0565b611eb69060016129fa565b611ec09083612bed565b611ed49069d3c21bcecceda1000000612bed565b60015460005460405163095ea7b360e01b81526001600160a01b03918216600482015260248101869052929550169063095ea7b3906044016020604051808303816000875af1158015611f2b573d6000803e3d6000fd5b505050506040513d601f19601f82011682018060405250810190611f4f9190612a40565b50600154600080546040516370a0823160e01b81526001600160a01b039182166004820152919216906370a0823190602401602060405180830381865afa158015611f9e573d6000803e3d6000fd5b505050506040513d601f19601f82011682018060405250810190611fc29190612a13565b600080546040516305ebef2760e01b8152881515600482015233602482015292935090916001600160a01b03909116906305ebef27906044016080604051808303816000875af115801561201a573d6000803e3d6000fd5b505050506040513d601f19601f8201168201806040525081019061203e9190612a5d565b60005460405163d591bdc160e01b8152881515600482015260248101889052604481018790529192506001600160a01b03169063d591bdc190606401600060405180830381600087803b15801561209457600080fd5b505af19250505080156120a5575060015b6120d25783156109fa576109fa6000604051806060016040528060298152602001612d28602991396126e5565b600154600080546040516370a0823160e01b81526001600160a01b039182166004820152919216906370a0823190602401602060405180830381865afa158015612120573d6000803e3d6000fd5b505050506040513d601f19601f820116820180604052508101906121449190612a13565b600080546040516305ebef2760e01b81528a1515600482015233602482015292935090916001600160a01b03909116906305ebef27906044016080604051808303816000875af115801561219c573d6000803e3d6000fd5b505050506040513d601f19601f820116820180604052508101906121c09190612a5d565b90506121ee826121d088876129fa565b604051806060016040528060258152602001612d726025913961272d565b805183516122209190612202908a906129fa565b604051806060016040528060238152602001612c666023913961272d565b612256816040015187856040015161223891906129fa565b604051806060016040528060298152602001612c896029913961272d565b3360009081526006602052604081208054889290610b769084906129fa565b60005b60035481101561232e5760006003828154811061229757612297612ae4565b60009182526020822001546001600160a01b031691506122cc826001600160a01b031660009081526006602052604090205490565b905060006122ef836001600160a01b031660009081526006602052604090205490565b9050612323828211156040518060400160405280600d81526020016c1d195cdd080c8819985a5b1959609a1b8152506126e5565b505050600101612278565b50565b61233a81611781565b60035461234790846129d0565b925060006003848154811061235e5761235e612ae4565b600091825260208220015481546040516395e98e2f60e01b81526001600160a01b0392831660048201819052871515602483015294509116906395e98e2f90604401602060405180830381865afa1580156123bd573d6000803e3d6000fd5b505050506040513d601f19601f820116820180604052508101906123e19190612a40565b600080546040516305ebef2760e01b815287151560048201526001600160a01b038681166024830152939450919216906305ebef27906044016080604051808303816000875af1158015612439573d6000803e3d6000fd5b505050506040513d601f19601f8201168201806040525081019061245d9190612a5d565b60408181015160015491516370a0823160e01b81526001600160a01b038781166004830152939450600093919291909116906370a0823190602401602060405180830381865afa1580156124b5573d6000803e3d6000fd5b505050506040513d601f19601f820116820180604052508101906124d99190612a13565b6124e391906129fa565b600054604051633199ab0160e01b81526001600160a01b0387811660048301528915156024830152929350911690633199ab0190604401600060405180830381600087803b15801561253457600080fd5b505af1925050508015612545575060015b612577578215612572576125726000604051806060016040528060228152602001612c44602291396126e5565b611777565b6125b6836040518060400160405280601f81526020017f6c6971756964617465206572726f723a2069734c6971756964617461626c65008152506126e5565b600080546040516305ebef2760e01b815288151560048201526001600160a01b038781166024830152909116906305ebef27906044016080604051808303816000875af115801561260b573d6000803e3d6000fd5b505050506040513d601f19601f8201168201806040525081019061262f9190612a5d565b60408181015160015491516370a0823160e01b81526001600160a01b038981166004830152939450600093919291909116906370a0823190602401602060405180830381865afa158015612687573d6000803e3d6000fd5b505050506040513d601f19601f820116820180604052508101906126ab9190612a13565b6126b591906129fa565b90506126da83826040518060600160405280602a8152602001612cfe602a9139612773565b505050505050505050565b81612729577fcf34ef537ac33ee1ac626ca1587a0a7e8e51561e5514f8cb36afa1c5102b3bab816040516127199190612823565b60405180910390a1612729612c04565b5050565b818314611b38577fcf34ef537ac33ee1ac626ca1587a0a7e8e51561e5514f8cb36afa1c5102b3bab816040516127639190612823565b60405180910390a1611b38612c04565b818311611b38577fcf34ef537ac33ee1ac626ca1587a0a7e8e51561e5514f8cb36afa1c5102b3bab816040516127639190612823565b8280548282559060005260206000209081019282156127fe579160200282015b828111156127fe57825182546001600160a01b0319166001600160a01b039091161782556020909201916001909101906127c9565b5061280a92915061280e565b5090565b5b8082111561280a576000815560010161280f565b60006020808352835180602085015260005b8181101561285157858101830151858201604001528201612835565b506000604082860101526040601f19601f8301168501019250505092915050565b80356001600160a01b038116811461288957600080fd5b919050565b6000602082840312156128a057600080fd5b6128a982612872565b9392505050565b6000806000606084860312156128c557600080fd5b505081359360208301359350604090920135919050565b801515811461232e57600080fd5b6000806000806080858703121561290057600080fd5b843561290b816128dc565b966020860135965060408601359560600135945092505050565b6000806000806080858703121561293b57600080fd5b8435935061294b60208601612872565b925061295960408601612872565b9396929550929360600135925050565b60006020828403121561297b57600080fd5b5035919050565b60008060006060848603121561299757600080fd5b8335925060208401356129a9816128dc565b929592945050506040919091013590565b634e487b7160e01b600052601260045260246000fd5b6000826129df576129df6129ba565b500690565b634e487b7160e01b600052601160045260246000fd5b80820180821115612a0d57612a0d6129e4565b92915050565b600060208284031215612a2557600080fd5b5051919050565b600082612a3b57612a3b6129ba565b500490565b600060208284031215612a5257600080fd5b81516128a9816128dc565b600060808284031215612a6f57600080fd5b6040516080810181811067ffffffffffffffff82111715612aa057634e487b7160e01b600052604160045260246000fd5b8060405250825181526020830151602082015260408301516040820152606083015160608201528091505092915050565b81810381811115612a0d57612a0d6129e4565b634e487b7160e01b600052603260045260246000fd5b600181815b80851115612b35578160001904821115612b1b57612b1b6129e4565b80851615612b2857918102915b93841c9390800290612aff565b509250929050565b600082612b4c57506001612a0d565b81612b5957506000612a0d565b8160018114612b6f5760028114612b7957612b95565b6001915050612a0d565b60ff841115612b8a57612b8a6129e4565b50506001821b612a0d565b5060208310610133831016604e8410600b8410161715612bb8575081810a612a0d565b612bc28383612afa565b8060001904821115612bd657612bd66129e4565b029392505050565b60006128a960ff841683612b3d565b8082028115828204841417612a0d57612a0d6129e4565b634e487b7160e01b600052600160045260246000fdfe6465637265617365506f736974696f6e206572726f723a20636f6c6c61746572616c20616d6f756e746c6971756964617465206572726f723a2066756e6374696f6e207265766572746564696e637265617365506f736974696f6e206572726f723a2073697a6520616d6f756e74696e637265617365506f736974696f6e206572726f723a20636f6c6c61746572616c20616d6f756e746465637265617365506f736974696f6e206572726f723a2066756e6374696f6e2072657665727465646465637265617365506f736974696f6e206572726f723a2073697a6520616d6f756e746c6971756964617465206572726f723a206c697175696461746564207472616465722062616c616e6365696e637265617365506f736974696f6e206572726f723a2066756e6374696f6e2072657665727465647769746864726177206572726f723a2066756e6374696f6e207265766572746564696e637265617365506f736974696f6e206572726f723a207661756c742062616c616e6365a2646970667358221220e929138444fa966bb1a5ed74a1e46993f186d8ce8c28a5a25864d9dced8f5e7164736f6c63430008190033608060405234801561001057600080fd5b50604051610ae7380380610ae783398101604081905261002f91610128565b8282600361003d8382610230565b50600461004a8282610230565b50506005805460ff191660ff9390931692909217909155506102ef915050565b634e487b7160e01b600052604160045260246000fd5b600082601f83011261009157600080fd5b81516001600160401b03808211156100ab576100ab61006a565b604051601f8301601f19908116603f011681019082821181831017156100d3576100d361006a565b81604052838152602092508660208588010111156100f057600080fd5b600091505b8382101561011257858201830151818301840152908201906100f5565b6000602085830101528094505050505092915050565b60008060006060848603121561013d57600080fd5b83516001600160401b038082111561015457600080fd5b61016087838801610080565b9450602086015191508082111561017657600080fd5b5061018386828701610080565b925050604084015160ff8116811461019a57600080fd5b809150509250925092565b600181811c908216806101b957607f821691505b6020821081036101d957634e487b7160e01b600052602260045260246000fd5b50919050565b601f82111561022b576000816000526020600020601f850160051c810160208610156102085750805b601f850160051c820191505b8181101561022757828155600101610214565b5050505b505050565b81516001600160401b038111156102495761024961006a565b61025d8161025784546101a5565b846101df565b602080601f831160018114610292576000841561027a5750858301515b600019600386901b1c1916600185901b178555610227565b600085815260208120601f198616915b828110156102c1578886015182559484019460019091019084016102a2565b50858210156102df5787850151600019600388901b60f8161c191681555b5050505050600190811b01905550565b6107e9806102fe6000396000f3fe608060405234801561001057600080fd5b50600436106100a95760003560e01c806340c10f191161007157806340c10f191461012957806370a082311461013e57806395d89b41146101675780639dc29fac1461016f578063a9059cbb14610182578063dd62ed3e1461019557600080fd5b806306fdde03146100ae578063095ea7b3146100cc57806318160ddd146100ef57806323b872dd14610101578063313ce56714610114575b600080fd5b6100b66101ce565b6040516100c39190610632565b60405180910390f35b6100df6100da36600461069d565b610260565b60405190151581526020016100c3565b6002545b6040519081526020016100c3565b6100df61010f3660046106c7565b61027a565b60055460405160ff90911681526020016100c3565b61013c61013736600461069d565b61029e565b005b6100f361014c366004610703565b6001600160a01b031660009081526020819052604090205490565b6100b66102ac565b61013c61017d36600461069d565b6102bb565b6100df61019036600461069d565b6102c5565b6100f36101a3366004610725565b6001600160a01b03918216600090815260016020908152604080832093909416825291909152205490565b6060600380546101dd90610758565b80601f016020809104026020016040519081016040528092919081815260200182805461020990610758565b80156102565780601f1061022b57610100808354040283529160200191610256565b820191906000526020600020905b81548152906001019060200180831161023957829003601f168201915b5050505050905090565b60003361026e8185856102d3565b60019150505b92915050565b6000336102888582856102e5565b610293858585610368565b506001949350505050565b6102a882826103c7565b5050565b6060600480546101dd90610758565b6102a882826103fd565b60003361026e818585610368565b6102e08383836001610433565b505050565b6001600160a01b038381166000908152600160209081526040808320938616835292905220546000198114610362578181101561035357604051637dc7a0d960e11b81526001600160a01b038416600482015260248101829052604481018390526064015b60405180910390fd5b61036284848484036000610433565b50505050565b6001600160a01b03831661039257604051634b637e8f60e11b81526000600482015260240161034a565b6001600160a01b0382166103bc5760405163ec442f0560e01b81526000600482015260240161034a565b6102e0838383610508565b6001600160a01b0382166103f15760405163ec442f0560e01b81526000600482015260240161034a565b6102a860008383610508565b6001600160a01b03821661042757604051634b637e8f60e11b81526000600482015260240161034a565b6102a882600083610508565b6001600160a01b03841661045d5760405163e602df0560e01b81526000600482015260240161034a565b6001600160a01b03831661048757604051634a1406b160e11b81526000600482015260240161034a565b6001600160a01b038085166000908152600160209081526040808320938716835292905220829055801561036257826001600160a01b0316846001600160a01b03167f8c5be1e5ebec7d5bd14f71427d1e84f3dd0314c0f7b2291e5b200ac8c7c3b925846040516104fa91815260200190565b60405180910390a350505050565b6001600160a01b0383166105335780600260008282546105289190610792565b909155506105a59050565b6001600160a01b038316600090815260208190526040902054818110156105865760405163391434e360e21b81526001600160a01b0385166004820152602481018290526044810183905260640161034a565b6001600160a01b03841660009081526020819052604090209082900390555b6001600160a01b0382166105c1576002805482900390556105e0565b6001600160a01b03821660009081526020819052604090208054820190555b816001600160a01b0316836001600160a01b03167fddf252ad1be2c89b69c2b068fc378daa952ba7f163c4a11628f55a4df523b3ef8360405161062591815260200190565b60405180910390a3505050565b60006020808352835180602085015260005b8181101561066057858101830151858201604001528201610644565b506000604082860101526040601f19601f8301168501019250505092915050565b80356001600160a01b038116811461069857600080fd5b919050565b600080604083850312156106b057600080fd5b6106b983610681565b946020939093013593505050565b6000806000606084860312156106dc57600080fd5b6106e584610681565b92506106f360208501610681565b9150604084013590509250925092565b60006020828403121561071557600080fd5b61071e82610681565b9392505050565b6000806040838503121561073857600080fd5b61074183610681565b915061074f60208401610681565b90509250929050565b600181811c9082168061076c57607f821691505b60208210810361078c57634e487b7160e01b600052602260045260246000fd5b50919050565b8082018082111561027457634e487b7160e01b600052601160045260246000fdfea264697066735822122010a8a82173735c5bbc90637decc2099afacd40dd72053418e83bd9a440473aec64736f6c63430008190033608060405234801561001057600080fd5b5060405161073138038061073183398101604081905261002f916100be565b6000805460ff191660ff8a16179055600161004a8882610274565b50506002948555600380546001600160501b03199081166001179091556004939093556005919091556006556007805490911690921790915550610333915050565b634e487b7160e01b600052604160045260246000fd5b80516001600160501b03811681146100b957600080fd5b919050565b600080600080600080600080610100898b0312156100db57600080fd5b885160ff811681146100ec57600080fd5b60208a810151919950906001600160401b038082111561010b57600080fd5b818c0191508c601f83011261011f57600080fd5b8151818111156101315761013161008c565b604051601f8201601f19908116603f011681019083821181831017156101595761015961008c565b816040528281528f8684870101111561017157600080fd5b600093505b828410156101935784840186015181850187015292850192610176565b6000868483010152809c50505050505050604089015195506101b760608a016100a2565b94506080890151935060a0890151925060c089015191506101da60e08a016100a2565b90509295985092959890939650565b600181811c908216806101fd57607f821691505b60208210810361021d57634e487b7160e01b600052602260045260246000fd5b50919050565b601f82111561026f576000816000526020600020601f850160051c8101602086101561024c5750805b601f850160051c820191505b8181101561026b57828155600101610258565b5050505b505050565b81516001600160401b0381111561028d5761028d61008c565b6102a18161029b84546101e9565b84610223565b602080601f8311600181146102d657600084156102be5750858301515b600019600386901b1c1916600185901b17855561026b565b600085815260208120601f198616915b82811015610305578886015182559484019460019091019084016102e6565b50858210156103235787850151600019600388901b60f8161c191681555b5050505050600190811b01905550565b6103ef806103426000396000f3fe608060405234801561001057600080fd5b50600436106100b45760003560e01c80638cd221c9116100715780638cd221c91461012c5780639a6fc8f514610157578063c22c24991461019e578063f21f537d146101b1578063f7a30806146101ba578063feaf968c146101d357600080fd5b8063313ce567146100b957806354fd4d50146100dd578063668a0f02146100f45780637284e416146101055780637519ab501461011a57806385bb7d6914610123575b600080fd5b6000546100c69060ff1681565b60405160ff90911681526020015b60405180910390f35b6100e660025481565b6040519081526020016100d4565b6003546001600160501b03166100e6565b61010d6101f4565b6040516100d491906102c0565b6100e660065481565b6100e660045481565b60035461013f906001600160501b031681565b6040516001600160501b0390911681526020016100d4565b61016a61016536600461030f565b610282565b604080516001600160501b03968716815260208101959095528401929092526060830152909116608082015260a0016100d4565b60075461013f906001600160501b031681565b6100e660055481565b6101d16101c836600461033f565b60045542600655565b005b6003546004546005546006546007546001600160501b03948516941661016a565b6001805461020190610358565b80601f016020809104026020016040519081016040528092919081815260200182805461022d90610358565b801561027a5780601f1061024f5761010080835404028352916020019161027a565b820191906000526020600020905b81548152906001019060200180831161025d57829003601f168201915b505050505081565b60008080808080610295610e1042610392565b6003546004546005546007546001600160501b039384169c929b509099509297509116945092505050565b60006020808352835180602085015260005b818110156102ee578581018301518582016040015282016102d2565b506000604082860101526040601f19601f8301168501019250505092915050565b60006020828403121561032157600080fd5b81356001600160501b038116811461033857600080fd5b9392505050565b60006020828403121561035157600080fd5b5035919050565b600181811c9082168061036c57607f821691505b60208210810361038c57634e487b7160e01b600052602260045260246000fd5b50919050565b818103818111156103b357634e487b7160e01b600052601160045260246000fd5b9291505056fea2646970667358221220ab482126d3a5dc6159f25ed9ed77a350a3574f54517c92f8cb4a272051857caf64736f6c634300081900336080604052348015600f57600080fd5b50601733601b565b6085565b600180546001600160a01b03191690556032816035565b50565b600080546001600160a01b038381166001600160a01b0319831681178455604051919092169283917f8be0079c531659141344cd1fd0a4f28419497f9722a3daafe3b4186f6b6457e09190a35050565b61062d806100946000396000f3fe608060405234801561001057600080fd5b50600436106100885760003560e01c80638da5cb5b1161005b5780638da5cb5b14610116578063d02641a01461013b578063e30c39781461015c578063f2fde38b1461016d57600080fd5b80630d6453601461008d578063715018a6146100a2578063775a57c3146100aa57806379ba50971461010e575b600080fd5b6100a061009b3660046104d8565b610180565b005b6100a06101e2565b6100e46100b836600461051e565b60026020819052600091825260409091208054600182015491909201546001600160a01b039092169183565b604080516001600160a01b0390941684526020840192909252908201526060015b60405180910390f35b6100a06101f6565b6000546001600160a01b03165b6040516001600160a01b039091168152602001610105565b61014e61014936600461051e565b61023f565b604051908152602001610105565b6001546001600160a01b0316610123565b6100a061017b36600461051e565b610392565b610188610403565b604080516060810182526001600160a01b0394851681526020808201948552818301938452958516600090815260029687905291909120905181546001600160a01b03191694169390931783559051600183015551910155565b6101ea610403565b6101f46000610430565b565b60015433906001600160a01b031681146102335760405163118cdaa760e01b81526001600160a01b03821660048201526024015b60405180910390fd5b61023c81610430565b50565b6001600160a01b0380821660009081526002602081815260408084208151606081018352815490961680875260018201549387019390935290920154848301528151633fabe5a360e21b81529151929392849283929163feaf968c9160048082019260a0929091908290030181865afa1580156102c0573d6000803e3d6000fd5b505050506040513d601f19601f820116820180604052508101906102e49190610561565b5093505092505060008213610321578251604051635f328a5b60e11b81526001600160a01b0390911660048201526024810183905260440161022a565b602083015161033082426105c7565b111561036e57825160208401516040516390ce167360e01b81526001600160a01b03909216600483015260248201839052604482015260640161022a565b6000836040015161037e84610449565b61038891906105e0565b9695505050505050565b61039a610403565b600180546001600160a01b0383166001600160a01b031990911681179091556103cb6000546001600160a01b031690565b6001600160a01b03167f38d16b8cac22d99fc7c124b9cd0de2d3fa1faef420bfe791d8c362d765e2270060405160405180910390a350565b6000546001600160a01b031633146101f45760405163118cdaa760e01b815233600482015260240161022a565b600180546001600160a01b031916905561023c81610473565b60008082121561046f57604051635467221960e11b81526004810183905260240161022a565b5090565b600080546001600160a01b038381166001600160a01b0319831681178455604051919092169283917f8be0079c531659141344cd1fd0a4f28419497f9722a3daafe3b4186f6b6457e09190a35050565b6001600160a01b038116811461023c57600080fd5b600080600080608085870312156104ee57600080fd5b84356104f9816104c3565b93506020850135610509816104c3565b93969395505050506040820135916060013590565b60006020828403121561053057600080fd5b813561053b816104c3565b9392505050565b805169ffffffffffffffffffff8116811461055c57600080fd5b919050565b600080600080600060a0868803121561057957600080fd5b61058286610542565b94506020860151935060408601519250606086015191506105a560808701610542565b90509295509295909350565b634e487b7160e01b600052601160045260246000fd5b818103818111156105da576105da6105b1565b92915050565b80820281158282048414176105da576105da6105b156fea26469706673582212208b30d62a0466fc38f31a930c5af3bcb02d3c6a6aaf26710cc45cdff295f0088664736f6c6343000819003360c06040526c064f964e68233a76f5200000006011556cfc6f7c40458122964d0000000060125560c860135534801561003757600080fd5b50604051612e8a380380612e8a83398101604081905261005691610350565b82868660036100658382610482565b5060046100728282610482565b505050600080610087836100fa60201b60201c565b9150915081610097576012610099565b805b60ff1660a05250506001600160a01b03166080526100b6336101d6565b600880546001600160a01b038087166001600160a01b03199283161790925560078054928516929091169190911790556100ef816101f2565b505050505050610576565b60408051600481526024810182526020810180516001600160e01b031663313ce56760e01b17905290516000918291829182916001600160a01b0387169161014191610541565b600060405180830381855afa9150503d806000811461017c576040519150601f19603f3d011682016040523d82523d6000602084013e610181565b606091505b509150915081801561019557506020815110155b156101c9576000818060200190518101906101b0919061055d565b905060ff81116101c7576001969095509350505050565b505b5060009485945092505050565b600680546001600160a01b03191690556101ef81610228565b50565b68abe62d2c5b05bd033f81111561022357604051635f28e0eb60e11b81526004810182905260240160405180910390fd5b601455565b600580546001600160a01b038381166001600160a01b0319831681179093556040519116919082907f8be0079c531659141344cd1fd0a4f28419497f9722a3daafe3b4186f6b6457e090600090a35050565b634e487b7160e01b600052604160045260246000fd5b60005b838110156102ab578181015183820152602001610293565b50506000910152565b600082601f8301126102c557600080fd5b81516001600160401b03808211156102df576102df61027a565b604051601f8301601f19908116603f011681019082821181831017156103075761030761027a565b8160405283815286602085880101111561032057600080fd5b610331846020830160208901610290565b9695505050505050565b6001600160a01b03811681146101ef57600080fd5b60008060008060008060c0878903121561036957600080fd5b86516001600160401b038082111561038057600080fd5b61038c8a838b016102b4565b975060208901519150808211156103a257600080fd5b506103af89828a016102b4565b95505060408701516103c08161033b565b60608801519094506103d18161033b565b60808801519093506103e28161033b565b8092505060a087015190509295509295509295565b600181811c9082168061040b57607f821691505b60208210810361042b57634e487b7160e01b600052602260045260246000fd5b50919050565b601f82111561047d576000816000526020600020601f850160051c8101602086101561045a5750805b601f850160051c820191505b8181101561047957828155600101610466565b5050505b505050565b81516001600160401b0381111561049b5761049b61027a565b6104af816104a984546103f7565b84610431565b602080601f8311600181146104e457600084156104cc5750858301515b600019600386901b1c1916600185901b178555610479565b600085815260208120601f198616915b82811015610513578886015182559484019460019091019084016104f4565b50858210156105315787850151600019600388901b60f8161c191681555b5050505050600190811b01905550565b60008251610553818460208701610290565b9190910192915050565b60006020828403121561056f57600080fd5b5051919050565b60805160a0516128c56105c56000396000610ac90152600081816104cb01528181610f350152818161124e015281816116340152818161180f01528181611e980152611fbf01526128c56000f3fe608060405234801561001057600080fd5b50600436106103835760003560e01c80638055c2cc116101de578063c6e6f5921161010f578063df7878c4116100ad578063e7d015f21161007c578063e7d015f2146107c5578063ef8b30f7146106ee578063f2fde38b146107d8578063f7683bbc146107eb57600080fd5b8063df7878c41461078f578063e1f1c4a7146107a2578063e30c3978146107ab578063e566a0a2146107bc57600080fd5b8063d3aebfea116100e9578063d3aebfea1461071d578063d591bdc114610730578063d905777e14610743578063dd62ed3e1461075657600080fd5b8063c6e6f592146106ee578063ce96cb7714610701578063d2f2b0401461071457600080fd5b8063abdc55411161017c578063b3d7f6b911610156578063b3d7f6b9146106b5578063b460af94146106c8578063ba087652146106db578063c63d75b61461050357600080fd5b8063abdc554114610667578063ac511bc014610677578063ae3302c2146106ac57600080fd5b806395d89b41116101b857806395d89b411461062557806395e98e2f1461062d578063a9059cbb14610640578063aaf5eb681461065357600080fd5b80638055c2cc146105ac5780638da5cb5b1461060157806394bf804d1461061257600080fd5b806338d52e0f116102b857806370a082311161025657806379ba50971161023057806379ba50971461057f5780637d245d1f146105875780637d882097146105905780637dc0d1d01461059957600080fd5b806370a0823114610545578063715018a61461056e578063794a97471461057657600080fd5b80634cdad506116102925780634cdad506146103fe57806358c0994a1461052157806367592602146105295780636e553f651461053257600080fd5b806338d52e0f146104c9578063402d267d146105035780634ac8eb5f1461051857600080fd5b806318160ddd1161032557806329f1ee19116102ff57806329f1ee191461048a578063310a224014610493578063313ce5671461049c5780633199ab01146104b657600080fd5b806318160ddd1461045a57806323b872dd1461046257806328690da81461047557600080fd5b806307a2d13a1161036157806307a2d13a146103fe578063095ea7b3146104115780630a28a47714610434578063149c94041461044757600080fd5b806301e1d1141461038857806305ebef27146103a357806306fdde03146103e9575b600080fd5b6103906107f3565b6040519081526020015b60405180910390f35b6103b66103b136600461232d565b6108b4565b60405161039a91908151815260208083015190820152604080830151908201526060918201519181019190915260800190565b6103f1610952565b60405161039a9190612386565b61039061040c3660046123b9565b6109e4565b61042461041f3660046123d2565b6109f1565b604051901515815260200161039a565b6103906104423660046123b9565b610a09565b6103906104553660046123fc565b610a16565b600254610390565b61042461047036600461241a565b610a62565b610488610483366004612456565b610a86565b005b610390600d5481565b610390600b5481565b6104a4610ac1565b60405160ff909116815260200161039a565b6104886104c436600461248b565b610af2565b7f00000000000000000000000000000000000000000000000000000000000000005b6040516001600160a01b03909116815260200161039a565b6103906105113660046124c2565b5060001990565b61039060095481565b610390610b8c565b61039060145481565b6103906105403660046124dd565b610c02565b6103906105533660046124c2565b6001600160a01b031660009081526020819052604090205490565b610488610c36565b610390600c5481565b610488610c4a565b61039060115481565b610390600a5481565b6007546104eb906001600160a01b031681565b6105e16105ba3660046124c2565b60106020526000908152604090208054600182015460028301546003909301549192909184565b60408051948552602085019390935291830152606082015260800161039a565b6005546001600160a01b03166104eb565b6103906106203660046124dd565b610c8e565b6103f1610cac565b61042461063b36600461248b565b610cbb565b61042461064e3660046123d2565b610e1e565b6103906c0c9f2c9cd04674edea4000000081565b61039068abe62d2c5b05bd033f81565b6105e16106853660046124c2565b600f6020526000908152604090208054600182015460028301546003909301549192909184565b61039060125481565b6103906106c33660046123b9565b610e2c565b6103906106d6366004612500565b610e39565b6103906106e9366004612500565b610e91565b6103906106fc3660046123b9565b610ee0565b61039061070f3660046124c2565b610eed565b610390600e5481565b61048861072b3660046123b9565b610f11565b61048861073e366004612456565b610f22565b6103906107513660046124c2565b61112d565b61039061076436600461253c565b6001600160a01b03918216600090815260016020908152604080832093909416825291909152205490565b61039061079d36600461248b565b61114b565b61039061271081565b6006546001600160a01b03166104eb565b61039060135481565b6008546104eb906001600160a01b031681565b6104886107e63660046124c2565b6111c3565b610390611234565b600a5460009081610802610b8c565b90506000610811600183610a16565b90506000610820600084610a16565b9050600061083461082f611234565b611287565b61083e838561256e565b61084891906125ac565b90506000811315610899578461085d826112b8565b111561087c57604051631590d67f60e21b815260040160405180910390fd5b610885816112b8565b61088f90866125da565b9550505050505090565b6108aa6108a5826125ed565b6112b8565b61088f9086612609565b6108df6040518060800160405280600081526020016000815260200160008152602001600081525090565b82610901576001600160a01b038216600090815260106020526040902061091a565b6001600160a01b0382166000908152600f602052604090205b604080516080810182528254815260018301546020820152600283015491810191909152600390910154606082015290505b92915050565b6060600380546109619061261c565b80601f016020809104026020016040519081016040528092919081815260200182805461098d9061261c565b80156109da5780601f106109af576101008083540402835291602001916109da565b820191906000526020600020905b8154815290600101906020018083116109bd57829003601f168201915b5050505050905090565b600061094c8260006112de565b6000336109ff818585611318565b5060019392505050565b600061094c826001611325565b60008215610a4057600b5482600d54610a2f9190612656565b610a39919061266d565b905061094c565b81600e54610a4e9190612656565b600c54610a5b919061266d565b9392505050565b600033610a70858285611355565b610a7b8585856113ba565b506001949350505050565b610a94338484846000611419565b610a9e3384610cbb565b15610abc57604051630ac5ef9360e21b815260040160405180910390fd5b505050565b6000610aed817f0000000000000000000000000000000000000000000000000000000000000000612694565b905090565b610afc8282610cbb565b610b1957604051636415f95960e01b815260040160405180910390fd5b600081610b27576010610b2a565b600f5b6001600160a01b03841660009081526020828152604080832081516080810183528154808252600180840154958301959095526002830154938201939093526003909101546060820152939450610b8692879287929190611419565b50505050565b600754600854604051630681320d60e51b81526001600160a01b039182166004820152600092919091169063d02641a0906024015b602060405180830381865afa158015610bde573d6000803e3d6000fd5b505050506040513d601f19601f82011682018060405250810190610aed91906126ad565b6000600019610c15565b60405180910390fd5b6000610c2085610ee0565b9050610c2e33858784611841565b949350505050565b610c3e61186a565b610c486000611897565b565b60065433906001600160a01b03168114610c825760405163118cdaa760e01b81526001600160a01b0382166004820152602401610c0c565b610c8b81611897565b50565b60006000196000610c9e85610e2c565b9050610c2e33858388611841565b6060600480546109619061261c565b60008082610ce0576001600160a01b0384166000908152601060205260409020610cf9565b6001600160a01b0384166000908152600f602052604090205b604080516080810182528254808252600184015460208301526002840154928201929092526003909201546060830152909150600003610d3d57600091505061094c565b6000610d47611234565b8260400151610d569190612656565b90506000610d63836118b0565b9050808211610d78576001935050505061094c565b610d8281836125da565b91506000610d9584878660000151611908565b50905060008113610dd4576000610dab826119f7565b9050808411610dc25760019550505050505061094c565b610dcc81856125da565b935050610dea565b610ddd816119f7565b610de79084612609565b92505b60125484518490610e08906c0c9f2c9cd04674edea40000000612656565b610e1291906126e7565b11979650505050505050565b6000336109ff8185856113ba565b600061094c8260016112de565b600080610e4583610eed565b905080851115610e6e57828582604051633fa733bb60e21b8152600401610c0c939291906126c6565b6000610e7986610a09565b9050610e883386868985611a0a565b95945050505050565b600080610e9d8361112d565b905080851115610ec657828582604051632e52afbb60e21b8152600401610c0c939291906126c6565b6000610ed1866109e4565b9050610e88338686848a611a0a565b600061094c826000611325565b6001600160a01b03811660009081526020819052604081205461094c9060006112de565b610f1961186a565b610c8b81611a3e565b8015610f5d57610f5d6001600160a01b037f000000000000000000000000000000000000000000000000000000000000000016333084611a70565b600083610f6b576010610f6e565b600f5b33600090815260208281526040808320815160808101835281548152600182015493810193909352600281015491830191909152600301546060820152919250610fb6610b8c565b9050600086610fce57610fc98683611ad7565b610fd8565b610fd882876126e7565b90506000610fe5846118b0565b90508584604001818151610ff99190612609565b90525083518790859061100d908390612609565b905250602084018051839190611024908390612609565b90525060408401805182919061103b9083906125da565b905250600a8054829190600090611053908490612609565b909155505042606085015261106784611b20565b336000908152602086815260408083208751815591870151600183015586015160028201556060860151600390910155600980548892906110a9908490612609565b909155505087156110ea5786600b60008282546110c69190612609565b9250508190555081600d60008282546110df9190612609565b9091555061111b9050565b86600c60008282546110fc9190612609565b9250508190555081600e60008282546111159190612609565b90915550505b611123611b78565b5050505050505050565b6001600160a01b03811660009081526020819052604081205461094c565b60008082611170576001600160a01b0384166000908152601060205260409020611189565b6001600160a01b0384166000908152600f602052604090205b60408051608081018252825481526001830154602082015260028301549181019190915260039091015460608201529050610c2e816118b0565b6111cb61186a565b600680546001600160a01b0383166001600160a01b031990911681179091556111fc6005546001600160a01b031690565b6001600160a01b03167f38d16b8cac22d99fc7c124b9cd0de2d3fa1faef420bfe791d8c362d765e2270060405160405180910390a350565b600754604051630681320d60e51b81526001600160a01b037f000000000000000000000000000000000000000000000000000000000000000081166004830152600092169063d02641a090602401610bc1565b60006001600160ff1b038211156112b45760405163123baf0360e11b815260048101839052602401610c0c565b5090565b6000808212156112b457604051635467221960e11b815260048101839052602401610c0c565b6000610a5b6112eb6107f3565b6112f6906001612609565b6113026000600a6127df565b60025461130f9190612609565b85919085611c27565b610abc8383836001611c76565b6000610a5b61133582600a6127df565b6002546113429190612609565b61134a6107f3565b61130f906001612609565b6001600160a01b038381166000908152600160209081526040808320938616835292905220546000198114610b8657818110156113ab57828183604051637dc7a0d960e11b8152600401610c0c939291906126c6565b610b8684848484036000611c76565b6001600160a01b0383166113e457604051634b637e8f60e11b815260006004820152602401610c0c565b6001600160a01b03821661140e5760405163ec442f0560e01b815260006004820152602401610c0c565b610abc838383611d4b565b60008461142757601061142a565b600f5b6001600160a01b03871660009081526020828152604080832081516080810183528154815260018201549381019390935260028101549183019190915260030154606082015291925061147b611234565b905060008061148b848a8a611908565b91509150600061149a856118b0565b905081856020018181516114ae91906125da565b9052508451899086906114c29083906125da565b9052506040850180518991906114d99083906125da565b9052506040850151811180156114ec5750865b1561151c5750604084018051600091829052600a805491928392611511908490612609565b909155506115829050565b808560400151101561155257808560400151604051630286b57760e51b8152600401610c0c929190918252602082015260400190565b808560400181815161156491906125da565b905250600a805482919060009061157c908490612609565b90915550505b89156115be5788600b600082825461159a91906125da565b9250508190555081600d60008282546115b391906125da565b909155506115ef9050565b88600c60008282546115d091906125da565b9250508190555081600e60008282546115e991906125da565b90915550505b8615611666576000612710601354876040015161160c9190612656565b61161691906126e7565b9050808660400181815161162a91906125da565b90525061166433827f00000000000000000000000000000000000000000000000000000000000000005b6001600160a01b03169190611e62565b505b60008312156117145760008461167b856119f7565b61168591906126e7565b90508780156116975750808660400151105b156116ad575060408501805160009091526116e3565b80866040015110156116e357808660400151604051630216b9a160e21b8152600401610c0c929190918252602082015260400190565b80866040018181516116f591906125da565b905250600a805482919060009061170d908490612609565b9091555050505b6000808413156117565784611728856112b8565b61173291906126e7565b61173c9082612609565b905080600a600082825461175091906125da565b90915550505b8815611769576117668982612609565b90505b6020860151158061177957508551155b156117c157604086015161178d9082612609565b6001600160a01b038d1660009081526020899052604081208181556001810182905560028101829055600301559050611802565b42606087019081526001600160a01b038d16600090815260208981526040918290208951815590890151600182015590880151600282015590516003909101555b8015611833576118338c827f0000000000000000000000000000000000000000000000000000000000000000611654565b505050505050505050505050565b61184d84848484611e93565b81600a600082825461185f9190612609565b909155505050505050565b6005546001600160a01b03163314610c485760405163118cdaa760e01b8152336004820152602401610c0c565b600680546001600160a01b0319169055610c8b81611f17565b6000806c0c9f2c9cd04674edea400000006014548460600151426118d491906125da565b85516118e09190612656565b6118ea9190612656565b6118f491906126e7565b90506118fe611234565b610a5b90826126e7565b6000806000611927611918610b8c565b876020015161082f9190612656565b905060008561194d578161193e8860000151611287565b611948919061266d565b611962565b865161195890611287565b611962908361266d565b90506119718760000151611287565b61197a86611287565b61198490836127ee565b61198e91906125ac565b9350848760000151036119a757866020015192506119ed565b85156119ce576119c78588602001516119c09190612656565b8851611f69565b92506119ed565b865160208801516119e0908790612656565b6119ea91906126e7565b92505b5050935093915050565b6000808212156112b4578160000361094c565b81600a6000828254611a1c91906125da565b90915550611a2f90508585858585611f8c565b611a37611b78565b5050505050565b68abe62d2c5b05bd033f811115611a6b57604051635f28e0eb60e11b815260048101829052602401610c0c565b601455565b6040516001600160a01b038481166024830152838116604483015260648201839052610b869186918216906323b872dd906084015b604051602081830303815290604052915060e01b6020820180516001600160e01b03838183161783525050505061204c565b600081600003611aeb57610a3982846126e7565b8215611b175781611afd6001856125da565b611b0791906126e7565b611b12906001612609565b610a5b565b50600092915050565b80511580611b3057506020810151155b80611b3d57506040810151155b15610c8b578051602082015160408084015190516338b3364f60e21b8152600481019390935260248301919091526044820152606401610c0c565b6000611b82610b8c565b90506000611b8e611234565b90506000600c549050600083600d54611ba79190612656565b90506000611bb58383612609565b9050600084600a54611bc79190612656565b905060006c0c9f2c9cd04674edea4000000060115483611be79190612656565b611bf191906126e7565b905080831115611c1e576040516319a6810b60e11b81526004810182905260248101849052604401610c0c565b50505050505050565b600080611c358686866120af565b9050611c4083612173565b8015611c5c575060008480611c5757611c57612596565b868809115b15610e8857611c6c600182612609565b9695505050505050565b6001600160a01b038416611ca05760405163e602df0560e01b815260006004820152602401610c0c565b6001600160a01b038316611cca57604051634a1406b160e11b815260006004820152602401610c0c565b6001600160a01b0380851660009081526001602090815260408083209387168352929052208290558015610b8657826001600160a01b0316846001600160a01b03167f8c5be1e5ebec7d5bd14f71427d1e84f3dd0314c0f7b2291e5b200ac8c7c3b92584604051611d3d91815260200190565b60405180910390a350505050565b6001600160a01b038316611d76578060026000828254611d6b9190612609565b90915550611dd59050565b6001600160a01b03831660009081526020819052604090205481811015611db65783818360405163391434e360e21b8152600401610c0c939291906126c6565b6001600160a01b03841660009081526020819052604090209082900390555b6001600160a01b038216611df157600280548290039055611e10565b6001600160a01b03821660009081526020819052604090208054820190555b816001600160a01b0316836001600160a01b03167fddf252ad1be2c89b69c2b068fc378daa952ba7f163c4a11628f55a4df523b3ef83604051611e5591815260200190565b60405180910390a3505050565b6040516001600160a01b03838116602483015260448201839052610abc91859182169063a9059cbb90606401611aa5565b611ebf7f0000000000000000000000000000000000000000000000000000000000000000853085611a70565b611ec983826121a0565b826001600160a01b0316846001600160a01b03167fdcbc1c05240f31ff3ad067ef1ee35ce4997762752e3a095284754544f4c709d78484604051611d3d929190918252602082015260400190565b600580546001600160a01b038381166001600160a01b0319831681179093556040519116919082907f8be0079c531659141344cd1fd0a4f28419497f9722a3daafe3b4186f6b6457e090600090a35050565b6000816001611f788286612609565b611f8291906125da565b610a5b91906126e7565b826001600160a01b0316856001600160a01b031614611fb057611fb0838683611355565b611fba83826121da565b611fe57f00000000000000000000000000000000000000000000000000000000000000008584611e62565b826001600160a01b0316846001600160a01b0316866001600160a01b03167ffbde797d201c681b91056529119e0b02407c7bb96a4a2c75c01fc9667232c8db858560405161203d929190918252602082015260400190565b60405180910390a45050505050565b60006120616001600160a01b03841683612210565b90508051600014158015612086575080806020019051810190612084919061281e565b155b15610abc57604051635274afe760e01b81526001600160a01b0384166004820152602401610c0c565b60008383028160001985870982811083820303915050806000036120e6578382816120dc576120dc612596565b0492505050610a5b565b8084116121065760405163227bc15360e01b815260040160405180910390fd5b6000848688096000868103871696879004966002600389028118808a02820302808a02820302808a02820302808a02820302808a02820302808a02909103029181900381900460010186841190950394909402919094039290920491909117919091029150509392505050565b600060028260038111156121895761218961283b565b6121939190612851565b60ff166001149050919050565b6001600160a01b0382166121ca5760405163ec442f0560e01b815260006004820152602401610c0c565b6121d660008383611d4b565b5050565b6001600160a01b03821661220457604051634b637e8f60e11b815260006004820152602401610c0c565b6121d682600083611d4b565b6060610a5b8383600084600080856001600160a01b031684866040516122369190612873565b60006040518083038185875af1925050503d8060008114612273576040519150601f19603f3d011682016040523d82523d6000602084013e612278565b606091505b5091509150611c6c86838360608261229357611b12826122da565b81511580156122aa57506001600160a01b0384163b155b156122d357604051639996b31560e01b81526001600160a01b0385166004820152602401610c0c565b5080610a5b565b8051156122ea5780518082602001fd5b604051630a12f52160e11b815260040160405180910390fd5b8015158114610c8b57600080fd5b80356001600160a01b038116811461232857600080fd5b919050565b6000806040838503121561234057600080fd5b823561234b81612303565b915061235960208401612311565b90509250929050565b60005b8381101561237d578181015183820152602001612365565b50506000910152565b60208152600082518060208401526123a5816040850160208701612362565b601f01601f19169190910160400192915050565b6000602082840312156123cb57600080fd5b5035919050565b600080604083850312156123e557600080fd5b6123ee83612311565b946020939093013593505050565b6000806040838503121561240f57600080fd5b82356123ee81612303565b60008060006060848603121561242f57600080fd5b61243884612311565b925061244660208501612311565b9150604084013590509250925092565b60008060006060848603121561246b57600080fd5b833561247681612303565b95602085013595506040909401359392505050565b6000806040838503121561249e57600080fd5b6124a783612311565b915060208301356124b781612303565b809150509250929050565b6000602082840312156124d457600080fd5b610a5b82612311565b600080604083850312156124f057600080fd5b8235915061235960208401612311565b60008060006060848603121561251557600080fd5b8335925061252560208501612311565b915061253360408501612311565b90509250925092565b6000806040838503121561254f57600080fd5b61234b83612311565b634e487b7160e01b600052601160045260246000fd5b808201828112600083128015821682158216171561258e5761258e612558565b505092915050565b634e487b7160e01b600052601260045260246000fd5b6000826125bb576125bb612596565b600160ff1b8214600019841416156125d5576125d5612558565b500590565b8181038181111561094c5761094c612558565b6000600160ff1b820161260257612602612558565b5060000390565b8082018082111561094c5761094c612558565b600181811c9082168061263057607f821691505b60208210810361265057634e487b7160e01b600052602260045260246000fd5b50919050565b808202811582820484141761094c5761094c612558565b818103600083128015838313168383128216171561268d5761268d612558565b5092915050565b60ff818116838216019081111561094c5761094c612558565b6000602082840312156126bf57600080fd5b5051919050565b6001600160a01b039390931683526020830191909152604082015260600190565b6000826126f6576126f6612596565b500490565b600181815b8085111561273657816000190482111561271c5761271c612558565b8085161561272957918102915b93841c9390800290612700565b509250929050565b60008261274d5750600161094c565b8161275a5750600061094c565b8160018114612770576002811461277a57612796565b600191505061094c565b60ff84111561278b5761278b612558565b50506001821b61094c565b5060208310610133831016604e8410600b84101617156127b9575081810a61094c565b6127c383836126fb565b80600019048211156127d7576127d7612558565b029392505050565b6000610a5b60ff84168361273e565b80820260008212600160ff1b8414161561280a5761280a612558565b818105831482151761094c5761094c612558565b60006020828403121561283057600080fd5b8151610a5b81612303565b634e487b7160e01b600052602160045260246000fd5b600060ff83168061286457612864612596565b8060ff84160691505092915050565b60008251612885818460208701612362565b919091019291505056fea2646970667358221220e6a1e76e1192cad77a7525e5a29e15567f534749982dd0568ca3274c5636e4d664736f6c63430008190033","linkReferences":{}},"methodIdentifiers":{"BTC()":"2792949d","USDC()":"89a30271","WETH()":"ad5c4648","actors(uint256)":"93c0e83a","alice()":"fb47e3a2","bob()":"c09cec77","btcFeed()":"c23d2a4a","btcPriceFeedFactor()":"0509e47e","carol()":"8b930f15","collateralDeposited(address)":"0a4b9ec2","collateralWithdrawn(address)":"43b11cdc","credit_actors()":"396e74e6","crytic_OIShouldNotBeMoreThan50PercLiquidity()":"8ff19b0e","crytic_tradersShouldNotWithdrawMoreThanDeposited()":"a4de00e4","feedDecimals()":"c23953d0","heartbeat()":"3defb962","lpDeposited(address)":"68526ec3","lpWithdrawn(address)":"d046cf52","minimumPerps()":"5dc92222","minimumPerps_decreasePosition(bool,uint256,uint256,uint256)":"12785b3e","minimumPerps_deposit(uint256,uint256,uint256)":"0dbb8e87","minimumPerps_increasePosition(bool,uint256,uint256,uint256)":"9c211187","minimumPerps_liquidate(uint256,bool,uint256)":"beab7584","minimumPerps_mint(uint256,uint256,uint256)":"5836a865","minimumPerps_redeem(uint256,address,address,uint256)":"23b6243c","minimumPerps_withdraw(uint256,address,address,uint256)":"900e60e8","mockAggregatorV3_setPrice(uint256)":"7f709540","name()":"06fdde03","setup_actors()":"1ab83602","symbol()":"95d89b41","tradersCollateralDeposit(address)":"1e56851a","tradersCollateralWithdrawn(address)":"3153dc4c","usdcFeed()":"a4e7d977","usdcPriceFeedFactor()":"df7c1601"},"id":57}