{"abi":[{"type":"constructor","inputs":[{"name":"_decimals","type":"uint8","internalType":"uint8"},{"name":"_description","type":"string","internalType":"string"},{"name":"_version","type":"uint256","internalType":"uint256"},{"name":"_roundId","type":"uint80","internalType":"uint80"},{"name":"_answer","type":"int256","internalType":"int256"},{"name":"_startedAt","type":"uint256","internalType":"uint256"},{"name":"_updatedAt","type":"uint256","internalType":"uint256"},{"name":"_answeredInRound","type":"uint80","internalType":"uint80"}],"stateMutability":"nonpayable"},{"type":"function","name":"answer","inputs":[],"outputs":[{"name":"","type":"int256","internalType":"int256"}],"stateMutability":"view"},{"type":"function","name":"answeredInRound","inputs":[],"outputs":[{"name":"","type":"uint80","internalType":"uint80"}],"stateMutability":"view"},{"type":"function","name":"decimals","inputs":[],"outputs":[{"name":"","type":"uint8","internalType":"uint8"}],"stateMutability":"view"},{"type":"function","name":"description","inputs":[],"outputs":[{"name":"","type":"string","internalType":"string"}],"stateMutability":"view"},{"type":"function","name":"getRoundData","inputs":[{"name":"","type":"uint80","internalType":"uint80"}],"outputs":[{"name":"","type":"uint80","internalType":"uint80"},{"name":"","type":"int256","internalType":"int256"},{"name":"","type":"uint256","internalType":"uint256"},{"name":"","type":"uint256","internalType":"uint256"},{"name":"","type":"uint80","internalType":"uint80"}],"stateMutability":"view"},{"type":"function","name":"latestRound","inputs":[],"outputs":[{"name":"","type":"uint256","internalType":"uint256"}],"stateMutability":"view"},{"type":"function","name":"latestRoundData","inputs":[],"outputs":[{"name":"","type":"uint80","internalType":"uint80"},{"name":"","type":"int256","internalType":"int256"},{"name":"","type":"uint256","internalType":"uint256"},{"name":"","type":"uint256","internalType":"uint256"},{"name":"","type":"uint80","internalType":"uint80"}],"stateMutability":"view"},{"type":"function","name":"roundId","inputs":[],"outputs":[{"name":"","type":"uint80","internalType":"uint80"}],"stateMutability":"view"},{"type":"function","name":"setPrice","inputs":[{"name":"_answer","type":"int256","internalType":"int256"}],"outputs":[],"stateMutability":"nonpayable"},{"type":"function","name":"startedAt","inputs":[],"outputs":[{"name":"","type":"uint256","internalType":"uint256"}],"stateMutability":"view"},{"type":"function","name":"updatedAt","inputs":[],"outputs":[{"name":"","type":"uint256","internalType":"uint256"}],"stateMutability":"view"},{"type":"function","name":"version","inputs":[],"outputs":[{"name":"","type":"uint256","internalType":"uint256"}],"stateMutability":"view"}],"bytecode":{"object":"0x608060405234801561001057600080fd5b5060405161073138038061073183398101604081905261002f916100be565b6000805460ff191660ff8a16179055600161004a8882610274565b50506002948555600380546001600160501b03199081166001179091556004939093556005919091556006556007805490911690921790915550610333915050565b634e487b7160e01b600052604160045260246000fd5b80516001600160501b03811681146100b957600080fd5b919050565b600080600080600080600080610100898b0312156100db57600080fd5b885160ff811681146100ec57600080fd5b60208a810151919950906001600160401b038082111561010b57600080fd5b818c0191508c601f83011261011f57600080fd5b8151818111156101315761013161008c565b604051601f8201601f19908116603f011681019083821181831017156101595761015961008c565b816040528281528f8684870101111561017157600080fd5b600093505b828410156101935784840186015181850187015292850192610176565b6000868483010152809c50505050505050604089015195506101b760608a016100a2565b94506080890151935060a0890151925060c089015191506101da60e08a016100a2565b90509295985092959890939650565b600181811c908216806101fd57607f821691505b60208210810361021d57634e487b7160e01b600052602260045260246000fd5b50919050565b601f82111561026f576000816000526020600020601f850160051c8101602086101561024c5750805b601f850160051c820191505b8181101561026b57828155600101610258565b5050505b505050565b81516001600160401b0381111561028d5761028d61008c565b6102a18161029b84546101e9565b84610223565b602080601f8311600181146102d657600084156102be5750858301515b600019600386901b1c1916600185901b17855561026b565b600085815260208120601f198616915b82811015610305578886015182559484019460019091019084016102e6565b50858210156103235787850151600019600388901b60f8161c191681555b5050505050600190811b01905550565b6103ef806103426000396000f3fe608060405234801561001057600080fd5b50600436106100b45760003560e01c80638cd221c9116100715780638cd221c91461012c5780639a6fc8f514610157578063c22c24991461019e578063f21f537d146101b1578063f7a30806146101ba578063feaf968c146101d357600080fd5b8063313ce567146100b957806354fd4d50146100dd578063668a0f02146100f45780637284e416146101055780637519ab501461011a57806385bb7d6914610123575b600080fd5b6000546100c69060ff1681565b60405160ff90911681526020015b60405180910390f35b6100e660025481565b6040519081526020016100d4565b6003546001600160501b03166100e6565b61010d6101f4565b6040516100d491906102c0565b6100e660065481565b6100e660045481565b60035461013f906001600160501b031681565b6040516001600160501b0390911681526020016100d4565b61016a61016536600461030f565b610282565b604080516001600160501b03968716815260208101959095528401929092526060830152909116608082015260a0016100d4565b60075461013f906001600160501b031681565b6100e660055481565b6101d16101c836600461033f565b60045542600655565b005b6003546004546005546006546007546001600160501b03948516941661016a565b6001805461020190610358565b80601f016020809104026020016040519081016040528092919081815260200182805461022d90610358565b801561027a5780601f1061024f5761010080835404028352916020019161027a565b820191906000526020600020905b81548152906001019060200180831161025d57829003601f168201915b505050505081565b60008080808080610295610e1042610392565b6003546004546005546007546001600160501b039384169c929b509099509297509116945092505050565b60006020808352835180602085015260005b818110156102ee578581018301518582016040015282016102d2565b506000604082860101526040601f19601f8301168501019250505092915050565b60006020828403121561032157600080fd5b81356001600160501b038116811461033857600080fd5b9392505050565b60006020828403121561035157600080fd5b5035919050565b600181811c9082168061036c57607f821691505b60208210810361038c57634e487b7160e01b600052602260045260246000fd5b50919050565b818103818111156103b357634e487b7160e01b600052601160045260246000fd5b9291505056fea2646970667358221220ab482126d3a5dc6159f25ed9ed77a350a3574f54517c92f8cb4a272051857caf64736f6c63430008190033","linkReferences":{}},"methodIdentifiers":{"answer()":"85bb7d69","answeredInRound()":"c22c2499","decimals()":"313ce567","description()":"7284e416","getRoundData(uint80)":"9a6fc8f5","latestRound()":"668a0f02","latestRoundData()":"feaf968c","roundId()":"8cd221c9","setPrice(int256)":"f7a30806","startedAt()":"f21f537d","updatedAt()":"7519ab50","version()":"54fd4d50"},"id":54}