{"abi":[{"type":"function","name":"acceptOwnership","inputs":[],"outputs":[],"stateMutability":"nonpayable"},{"type":"function","name":"getTokenPrice","inputs":[{"name":"token","type":"address","internalType":"address"}],"outputs":[{"name":"","type":"uint256","internalType":"uint256"}],"stateMutability":"view"},{"type":"function","name":"owner","inputs":[],"outputs":[{"name":"","type":"address","internalType":"address"}],"stateMutability":"view"},{"type":"function","name":"pendingOwner","inputs":[],"outputs":[{"name":"","type":"address","internalType":"address"}],"stateMutability":"view"},{"type":"function","name":"renounceOwnership","inputs":[],"outputs":[],"stateMutability":"nonpayable"},{"type":"function","name":"tokenToConfig","inputs":[{"name":"","type":"address","internalType":"address"}],"outputs":[{"name":"priceFeed","type":"address","internalType":"contract IAggregatorV3"},{"name":"heartBeatDuration","type":"uint256","internalType":"uint256"},{"name":"priceFeedFactor","type":"uint256","internalType":"uint256"}],"stateMutability":"view"},{"type":"function","name":"transferOwnership","inputs":[{"name":"newOwner","type":"address","internalType":"address"}],"outputs":[],"stateMutability":"nonpayable"},{"type":"function","name":"updatePricefeedConfig","inputs":[{"name":"token","type":"address","internalType":"address"},{"name":"priceFeed","type":"address","internalType":"contract IAggregatorV3"},{"name":"heartBeatDuration","type":"uint256","internalType":"uint256"},{"name":"priceFeedFactor","type":"uint256","internalType":"uint256"}],"outputs":[],"stateMutability":"nonpayable"},{"type":"event","name":"OwnershipTransferStarted","inputs":[{"name":"previousOwner","type":"address","indexed":true,"internalType":"address"},{"name":"newOwner","type":"address","indexed":true,"internalType":"address"}],"anonymous":false},{"type":"event","name":"OwnershipTransferred","inputs":[{"name":"previousOwner","type":"address","indexed":true,"internalType":"address"},{"name":"newOwner","type":"address","indexed":true,"internalType":"address"}],"anonymous":false},{"type":"error","name":"InvalidFeedPrice","inputs":[{"name":"priceFeed","type":"address","internalType":"address"},{"name":"price","type":"int256","internalType":"int256"}]},{"type":"error","name":"OwnableInvalidOwner","inputs":[{"name":"owner","type":"address","internalType":"address"}]},{"type":"error","name":"OwnableUnauthorizedAccount","inputs":[{"name":"account","type":"address","internalType":"address"}]},{"type":"error","name":"PriceFeedNotUpdated","inputs":[{"name":"priceFeed","type":"address","internalType":"address"},{"name":"lastTimestamp","type":"uint256","internalType":"uint256"},{"name":"heartbeat","type":"uint256","internalType":"uint256"}]},{"type":"error","name":"SafeCastOverflowedIntToUint","inputs":[{"name":"value","type":"int256","internalType":"int256"}]}],"bytecode":{"object":"0x6080604052348015600f57600080fd5b50601733601b565b6085565b600180546001600160a01b03191690556032816035565b50565b600080546001600160a01b038381166001600160a01b0319831681178455604051919092169283917f8be0079c531659141344cd1fd0a4f28419497f9722a3daafe3b4186f6b6457e09190a35050565b61062d806100946000396000f3fe608060405234801561001057600080fd5b50600436106100885760003560e01c80638da5cb5b1161005b5780638da5cb5b14610116578063d02641a01461013b578063e30c39781461015c578063f2fde38b1461016d57600080fd5b80630d6453601461008d578063715018a6146100a2578063775a57c3146100aa57806379ba50971461010e575b600080fd5b6100a061009b3660046104d8565b610180565b005b6100a06101e2565b6100e46100b836600461051e565b60026020819052600091825260409091208054600182015491909201546001600160a01b039092169183565b604080516001600160a01b0390941684526020840192909252908201526060015b60405180910390f35b6100a06101f6565b6000546001600160a01b03165b6040516001600160a01b039091168152602001610105565b61014e61014936600461051e565b61023f565b604051908152602001610105565b6001546001600160a01b0316610123565b6100a061017b36600461051e565b610392565b610188610403565b604080516060810182526001600160a01b0394851681526020808201948552818301938452958516600090815260029687905291909120905181546001600160a01b03191694169390931783559051600183015551910155565b6101ea610403565b6101f46000610430565b565b60015433906001600160a01b031681146102335760405163118cdaa760e01b81526001600160a01b03821660048201526024015b60405180910390fd5b61023c81610430565b50565b6001600160a01b0380821660009081526002602081815260408084208151606081018352815490961680875260018201549387019390935290920154848301528151633fabe5a360e21b81529151929392849283929163feaf968c9160048082019260a0929091908290030181865afa1580156102c0573d6000803e3d6000fd5b505050506040513d601f19601f820116820180604052508101906102e49190610561565b5093505092505060008213610321578251604051635f328a5b60e11b81526001600160a01b0390911660048201526024810183905260440161022a565b602083015161033082426105c7565b111561036e57825160208401516040516390ce167360e01b81526001600160a01b03909216600483015260248201839052604482015260640161022a565b6000836040015161037e84610449565b61038891906105e0565b9695505050505050565b61039a610403565b600180546001600160a01b0383166001600160a01b031990911681179091556103cb6000546001600160a01b031690565b6001600160a01b03167f38d16b8cac22d99fc7c124b9cd0de2d3fa1faef420bfe791d8c362d765e2270060405160405180910390a350565b6000546001600160a01b031633146101f45760405163118cdaa760e01b815233600482015260240161022a565b600180546001600160a01b031916905561023c81610473565b60008082121561046f57604051635467221960e11b81526004810183905260240161022a565b5090565b600080546001600160a01b038381166001600160a01b0319831681178455604051919092169283917f8be0079c531659141344cd1fd0a4f28419497f9722a3daafe3b4186f6b6457e09190a35050565b6001600160a01b038116811461023c57600080fd5b600080600080608085870312156104ee57600080fd5b84356104f9816104c3565b93506020850135610509816104c3565b93969395505050506040820135916060013590565b60006020828403121561053057600080fd5b813561053b816104c3565b9392505050565b805169ffffffffffffffffffff8116811461055c57600080fd5b919050565b600080600080600060a0868803121561057957600080fd5b61058286610542565b94506020860151935060408601519250606086015191506105a560808701610542565b90509295509295909350565b634e487b7160e01b600052601160045260246000fd5b818103818111156105da576105da6105b1565b92915050565b80820281158282048414176105da576105da6105b156fea26469706673582212208b30d62a0466fc38f31a930c5af3bcb02d3c6a6aaf26710cc45cdff295f0088664736f6c63430008190033","linkReferences":{}},"methodIdentifiers":{"acceptOwnership()":"79ba5097","getTokenPrice(address)":"d02641a0","owner()":"8da5cb5b","pendingOwner()":"e30c3978","renounceOwnership()":"715018a6","tokenToConfig(address)":"775a57c3","transferOwnership(address)":"f2fde38b","updatePricefeedConfig(address,address,uint256,uint256)":"0d645360"},"id":52}